{
  "contractName": "Adoption",
  "abi": [
    {
      "constant": true,
      "inputs": [
        {
          "internalType": "uint256",
          "name": "",
          "type": "uint256"
        }
      ],
      "name": "adopters",
      "outputs": [
        {
          "internalType": "address",
          "name": "",
          "type": "address"
        }
      ],
      "payable": false,
      "stateMutability": "view",
      "type": "function"
    },
    {
      "constant": false,
      "inputs": [
        {
          "internalType": "uint256",
          "name": "petId",
          "type": "uint256"
        }
      ],
      "name": "adopt",
      "outputs": [
        {
          "internalType": "uint256",
          "name": "",
          "type": "uint256"
        }
      ],
      "payable": false,
      "stateMutability": "nonpayable",
      "type": "function"
    }
  ],
  "bytecode": "0x608060405234801561001057600080fd5b506101c4806100206000396000f3fe608060405234801561001057600080fd5b50600436106100365760003560e01c806343ae80d31461003b5780638588b2c5146100a9575b600080fd5b6100676004803603602081101561005157600080fd5b81019080803590602001909291905050506100eb565b604051808273ffffffffffffffffffffffffffffffffffffffff1673ffffffffffffffffffffffffffffffffffffffff16815260200191505060405180910390f35b6100d5600480360360208110156100bf57600080fd5b810190808035906020019092919050505061011e565b6040518082815260200191505060405180910390f35b600081601081106100f857fe5b016000915054906101000a900473ffffffffffffffffffffffffffffffffffffffff1681565b60008082101580156101315750600f8211155b61013a57600080fd5b336000836010811061014857fe5b0160006101000a81548173ffffffffffffffffffffffffffffffffffffffff021916908373ffffffffffffffffffffffffffffffffffffffff16021790555081905091905056fea265627a7a72315820dba3e1f3572e67184871f1bb299433c16fa5127173d3e9d48c12c8c8c33802af64736f6c63430005100032",
  "source": "pragma solidity >=0.5.0;\n\ncontract Adoption {\n\n    address[16] public adopters;\n\n// Adopting a pet\nfunction adopt(uint petId) public returns (uint) {\n  require(petId >= 0 && petId <= 15);\n\n  adopters[petId] = msg.sender;\n\n  return petId;\n}\n\n\n}",
  "sourcePath": "/Users/glenmaytum/Desktop/Practice/Projects/pet-shop/contracts/Adoptions.sol",
  "compiler": {
    "name": "solc",
    "version": "0.5.16+commit.9c3226ce.Emscripten.clang"
  },
  "schemaVersion": "3.4.4",
  "updatedAt": "2022-02-03T18:22:22.268Z",
  "networkType": "ethereum",
  "devdoc": {
    "methods": {}
  },
  "userdoc": {
    "methods": {}
  }
}